:0A05B9000000000000000000000038
:0A056E00021C0000011F00011E0026
:1005A600759850758920758DFD758BFDD28ED2AFED
:0305B600D2AC22A2
:0805C3008F993099FDC29922C5
:06045600AB3BAD0EAF0D43
:06045C008F0F8D108B11C3
:1004620078127C007D007BFF7A0579B97E007F0AD5
:1004720012022175124875130A751401751501854A
:100482001116E4F517F518850F1985101AF51BFEDC
:1004920074122EF8E6251BF51B0EBE09F3E4FE745A
:0C04A200122EF8E6FF1205C30EBE0AF38E
:0104AE00222B
:0300230002038550
:10038500C0E0C0D075D000C000C004C006C00730B2
:10039500984DC298E51F64036006E51E640170333D
:1003A500AF1E051E741C2FF8A699E51E6402702366
:1003B500D200F51FF51EE51CFE7C00E4251DF52287
:1003C500EC3EF52145226005E52230E00675210069
:1003D500752201E599B46104051F8003751F00D0DE
:0C03E50007D006D004D000D0D0D0E03209
:10058B00E521F50D85220E120456120456AB3B05E0
:0B059B003B1204587F287E0002000382
:10057800074380828486888A8C073C0041152412B0
:02058800041558
:10051E00C293C295D293E4FEEF139294EFC313FFEE
:10052E00D295C2950EBE08F0E4FEED139294EDC383
:0C053E0013FDD295C2950EBE08F0C293CA
:01054A00228E
:1004AF00C293C295D293E4FDEF139294EFC313FF5F
:1004BF00D295C2950DBD08F0E4FDA294E433FFC4BC
:1004CF003333335480FCEEC3134CFED295C2950DDB
:0D04DF00BD08E7C293D295C294D294AF0637
:0104EC0022ED
:10054B00E4FD7F8E12051EE4FC74432CF8E6FF7469
:10055B003C2CF8E6FD12051E0CBC07ED7D807F8E52
:03056B0002051E68
:10026D0075A0F0E5A064F070030202F67F0A7E002F
:10027D00120003E5A0448064F0606EAFA075A00F7E
:10028D00AEA0EE2FF50DE5A0547FFFBF0FF87F0A4E
:10029D007E00120003E50D12024702F0B702EABB21
:1002AD0002E1BD02D8BE02CFD702E7DB02DEDD02DE
:1002BD00D5DE02EDE702E4EB02DBED02D2EE00004B
:1002CD0002F37F00227F01227F02227F03227F041F
:1002DD00227F05227F06227F07227F08227F0922A7
:0B02ED007F0A227F0B227F0C227F0C77
:0102F80022E3
:1004ED008E0E8F0FEFF5807590017F287E00120024
:1004FD0003E4F5907F28FE120003E50EF58075905C
:10050D00027F287E00120003E4F5907F28FE020092
:01051D0003DA
:0203F1008F0D6E
:1003F300AF22AE21E52245216005E52230E00675F6
:100403002100752201EFA80D088005CEC313CE137A
:10041300D8F9FF530701EFC4F8540FC868FFE5226A
:100423004FF5807590027F287E00120003E4F5905B
:100433007F28FE120003850D807590047F467E00A1
:10044300120003E4F5907F28FE120003AF22AE21D1
:030453000204EDB3
:10002600E4F5A0F590F5807F28FE120003E4F521A3
:10003600F522F53B12054B1205A6C200E4F508AF02
:10004600081203F10508E508C3940C40F212058B6B
:10005600300016C200E4F508AF081203F10508E502
:1000660008C3940C40F212058B12026D8F09E50944
:10007600C3940C507CE5097019F521F522F508AFFB
:10008600081203F10508E508C3940C40F212058B2B
:10009600805F750A00750B01E50BAE0AA80908809A
:1000A60005C333CE33CED8F9F50B8E0AE52230E000
:1000B60008850A21850B228008E50B6222E50A6283
:1000C60021AF091203F112058BE50A5521FEE50B56
:1000D60055224E601C7F871204AFE50925E02423D4
:1000E600F8A6077F851204AFE50925E02424F8A6C3
:1000F600077F851204AFEF640860030200567F8312
:100106001204AFEF600302005685220C750801E564
:1001160008C3940C4003020056E50CC313F50C30DB
:10012600E0257F871204AFE50825E02423F8E6B52D
:10013600070DE50925E02424F8E6D394055008AF19
:0B014600081203F112058B050880C4AD
:10000300E4FDFCC3ED9FEC9E5015E4FBFA0BBB0033
:0F001300010ABA03F8BBE8F50DBD00010C80E44B
:0100220022BB
:030000000202F900
:0C02F900787FE4F6D8FD758149020340CF
:10015100E709F608DFFA8046E709F208DFFA803E90
:1001610088828C83E709F0A3DFFA8032E309F6087D
:10017100DFFA8078E309F208DFFA807088828C83E5
:10018100E309F0A3DFFA806489828A83E0A3F60899
:10019100DFFA805889828A83E0A3F208DFFA804C73
:1001A10080D280FA80C680D4806980F2803380104A
:1001B10080A680EA809A80A880DA80E280CA8033B3
:1001C10089828A83ECFAE493A3C8C582C8CCC5832B
:1001D100CCF0A3C8C582C8CCC583CCDFE9DEE780FB
:1001E1000D89828A83E493A3F608DFF9ECFAA9F07A
:1001F100EDFB2289828A83ECFAE0A3C8C582C8CCD0
:10020100C583CCF0A3C8C582C8CCC583CCDFEADEE8
:10021100E880DB89828A83E493A3F208DFF980CC4A
:1002210088F0EF60010E4E60C388F0ED2402B40443
:100231000050B9F582EB2402B4040050AF232345EA
:0602410082239001A1736D
:10024700D083D082F8E4937012740193700DA3A346
:1002570093F8740193F5828883E47374029368605A
:06026700EFA3A3A380DF5A
:10030500020026E493A3F8E493A34003F68001F2E8
:1003150008DFF48029E493A3F85407240CC8C333F9
:10032500C4540F4420C8834004F456800146F6DFC8
:10033500E4800B010204081020408090056EE47EE5
:10034500019360BCA3FF543F30E509541FFEE493BD
:10035500A360010ECF54C025E060A840B8E493A384
:10036500FAE493A3F8E493A3C8C582C8CAC583CAAF
:10037500F0A3C8C582C8CAC583CADFE9DEE780BE67
:01058A000070
:00000001FF
